:200000000000000000000000000000000000000001100400091E0404011104000712000865
:200020000113060F0010040401130100041A010001170200051C03080513000801110808C3
:200040000014030005130308011104000212080000100308001004080419060804120400B8
:2000600002180408041906080412040002150608061604000212010806170608041604006A
:2000800002120108061606080614040001180108051B06080614040002120608061204004F
:2000A0000819010A051B060806160400011708080012010006180308031C00080111000029
:2000C00000110308051308080011060806120400041406080611020802100400031E00081B
:2000E0000513060804110500031C0404031C070E0F1F0000001100080015030805110008E0
:20010000001203080510000800170308051300000011000000110400051100000011040812
:20012000031C060F0010020006100108051C040404190308041804000212000000160000BF
:20014000021F08080110060F0010040401110000071F0108001006080412060F0010040092
:200160000210040401110F0F0E1F0000011C04000515080801100108011103080111080864
:200180000110030C041805000418050001110400061D04000212030809180008081F060843
:2001A00006140F000919060900100308091706080E18040C091006080E14040C0911040CE3
:2001C000091206080E12040C091306080E11040C091400080917060A00100008081F0608CB
:2001E00006140C00091900080918060C00100404001000080111030C0418010000100308F3
:2002000000100500041804000212070F0F1F00000113000001130000011100000113070EEE
:200220000F1F00020012070E0F1F01000010000100100000011300000011000000110000E1
:200240000011000000110008011303080011000C091606080C1204000A1900080916010896
:20026000091703080916030804180308091404000A1005000418050009140C080918060841
:200280000E110400021001000916030809160F0009140500081F060F00100400021000004C
:2002A0000010000000000000000000000000000030303030403038303040314232454033C9
:2002C0004233314030463331403342333040323333344033423332400D0A3042333040387C
:2002E00038303640363834344034333144403042333140323333334033333332403342321B
:2003000046400D0A363836314030463246403342324640304233304036383634403433310B
:200320003940383030424031333243400D0A34333142403830304240313331464033423105
:2003400043400D0A303030314B0D0A3830313040343330454034333043403433373140345E
:20036000333831403433373640343338364034333430400D0A3433334440343334334034F6
:2003800033353240343342454034334443403433364240343336384034333244400D0A348B
:2003A0003346364030303031400D0A303030314B0D0A303030314B0D0A303030314B0D0ACD
:2003C000303030314B0D0A4645303040303146464030303046403030313040383030304083
:2003E0003433463640343336454037464646400D0A303030314B0D0A34334636403046326A
:20040000464033383938403533324640304632464033383939403437303040304632464096
:200420000D0A33423330403533324640304632464031303939403338393940363930304000
:20044000313333304036383631400D0A34333635403130393840333839384036393030401A
:2004600033383937403437303040304632464033423330400D0A35333246403038393940BF
:200480003146324640333839394030383938403638363140343335444031423330400D0A95
:2004A00034333445403142324540363834314034333542403142333040333839384030421D
:2004C00032454033383937400D0A3437303040313039384033383938403433363240303883
:2004E0003938403346324640353332464030383939400D0A3346324640343730304030421B
:20050000324640333839394034373030403442394240344242324035333246400D0A343302
:200520003732403437303040344239424030383938403233333740334233314034424232AB
:200540004033333331400D0A333839384035333246403433374140383831304034333633FE
:20056000403442394240344241354035333246400D0A3433383240343730304038303130C2
:2005800040334233324034423942403038393840323333374033423331400D0A344241358C
:2005A000403038393840324233314033333332403342333240353332464034333843403033
:2005C000423332400D0A383030464033383937403038393840323333414033333331403375
:2005E00038393840343730304030303030400D0A3042324640323333354033423246403656
:200600003836324031423336403142324640314232464033423246400D0A343739424030EE
:200620003030304030383939403838303140333839394036393030403342333040303839DA
:2006400038400D0A38383031403333333040333839384036393030403338393740343741FF
:200660003540303030304030383938400D0A383830464033423330403038393940383030E5
:20068000314033333330403338393940303839384038303031400D0A3338393840343742C1
:2006A0003240383831304033383937403338393840304246414033424642403046324640DC
:2006C0000D0A3342324640364130304038303031403342324640303839384036383631405B
:2006E000313039394033383938400D0A36393030403838304640334233424030383938403C
:2007000038383046403133324640334232464030383938400D0A3830303140313333424018
:200720003338393840304232464035334642403433433540333839394034373030400D0AE5
:20074000303839384031463246403638343140343346334030424641403342464240344232
:2007600041354030383938400D0A31463246403638343140343345434033423332403038A0
:200780003937403638363240343345454030423332400D0A33383938403530393940353399
:2007A000464240343345324038383130403338393740343730304030423245400D0A333871
:2007C00039374034373030403042463940333831334034303134403030383140464646300A
:2007E0004030303030400D0A43434330490D0A30333030480000000000000000000000003E
:1008000000000000000000000000000000000000E8
:00000001FF
